{
  "_format": "hh-sol-artifact-1",
  "contractName": "RiskAnalyzer",
  "sourceName": "contracts/RiskAnalyzer.sol",
  "abi": [
    {
      "inputs": [],
      "stateMutability": "nonpayable",
      "type": "constructor"
    },
    {
      "inputs": [
        {
          "internalType": "address",
          "name": "owner",
          "type": "address"
        }
      ],
      "name": "OwnableInvalidOwner",
      "type": "error"
    },
    {
      "inputs": [
        {
          "internalType": "address",
          "name": "account",
          "type": "address"
        }
      ],
      "name": "OwnableUnauthorizedAccount",
      "type": "error"
    },
    {
      "inputs": [],
      "name": "ReentrancyGuardReentrantCall",
      "type": "error"
    },
    {
      "anonymous": false,
      "inputs": [
        {
          "indexed": true,
          "internalType": "address",
          "name": "contractAddress",
          "type": "address"
        }
      ],
      "name": "ContractBlacklisted",
      "type": "event"
    },
    {
      "anonymous": false,
      "inputs": [
        {
          "indexed": true,
          "internalType": "address",
          "name": "previousOwner",
          "type": "address"
        },
        {
          "indexed": true,
          "internalType": "address",
          "name": "newOwner",
          "type": "address"
        }
      ],
      "name": "OwnershipTransferred",
      "type": "event"
    },
    {
      "anonymous": false,
      "inputs": [
        {
          "indexed": true,
          "internalType": "address",
          "name": "poolAddress",
          "type": "address"
        },
        {
          "indexed": false,
          "internalType": "uint256",
          "name": "liquidityScore",
          "type": "uint256"
        },
        {
          "indexed": false,
          "internalType": "uint256",
          "name": "volumeScore",
          "type": "uint256"
        }
      ],
      "name": "PoolDataUpdated",
      "type": "event"
    },
    {
      "anonymous": false,
      "inputs": [
        {
          "indexed": true,
          "internalType": "address",
          "name": "contractAddress",
          "type": "address"
        },
        {
          "indexed": false,
          "internalType": "uint256",
          "name": "riskScore",
          "type": "uint256"
        },
        {
          "indexed": false,
          "internalType": "string",
          "name": "riskLevel",
          "type": "string"
        }
      ],
      "name": "RiskDataUpdated",
      "type": "event"
    },
    {
      "inputs": [
        {
          "internalType": "address",
          "name": "_contractAddress",
          "type": "address"
        }
      ],
      "name": "blacklistContract",
      "outputs": [],
      "stateMutability": "nonpayable",
      "type": "function"
    },
    {
      "inputs": [
        {
          "internalType": "address",
          "name": "",
          "type": "address"
        }
      ],
      "name": "blacklistedContracts",
      "outputs": [
        {
          "internalType": "bool",
          "name": "",
          "type": "bool"
        }
      ],
      "stateMutability": "view",
      "type": "function"
    },
    {
      "inputs": [
        {
          "internalType": "address",
          "name": "",
          "type": "address"
        }
      ],
      "name": "contractRisks",
      "outputs": [
        {
          "internalType": "address",
          "name": "contractAddress",
          "type": "address"
        },
        {
          "internalType": "uint256",
          "name": "riskScore",
          "type": "uint256"
        },
        {
          "internalType": "string",
          "name": "riskLevel",
          "type": "string"
        },
        {
          "internalType": "uint256",
          "name": "timestamp",
          "type": "uint256"
        },
        {
          "internalType": "bool",
          "name": "isBlacklisted",
          "type": "bool"
        }
      ],
      "stateMutability": "view",
      "type": "function"
    },
    {
      "inputs": [
        {
          "internalType": "address[]",
          "name": "_addresses",
          "type": "address[]"
        }
      ],
      "name": "getBatchRiskData",
      "outputs": [
        {
          "components": [
            {
              "internalType": "address",
              "name": "contractAddress",
              "type": "address"
            },
            {
              "internalType": "uint256",
              "name": "riskScore",
              "type": "uint256"
            },
            {
              "internalType": "string",
              "name": "riskLevel",
              "type": "string"
            },
            {
              "internalType": "uint256",
              "name": "timestamp",
              "type": "uint256"
            },
            {
              "internalType": "bool",
              "name": "isBlacklisted",
              "type": "bool"
            }
          ],
          "internalType": "struct RiskAnalyzer.RiskData[]",
          "name": "",
          "type": "tuple[]"
        }
      ],
      "stateMutability": "view",
      "type": "function"
    },
    {
      "inputs": [
        {
          "internalType": "address",
          "name": "_poolAddress",
          "type": "address"
        }
      ],
      "name": "getPoolData",
      "outputs": [
        {
          "components": [
            {
              "internalType": "address",
              "name": "poolAddress",
              "type": "address"
            },
            {
              "internalType": "uint256",
              "name": "liquidityScore",
              "type": "uint256"
            },
            {
              "internalType": "uint256",
              "name": "volumeScore",
              "type": "uint256"
            },
            {
              "internalType": "bool",
              "name": "isVerified",
              "type": "bool"
            },
            {
              "internalType": "uint256",
              "name": "lastUpdated",
              "type": "uint256"
            }
          ],
          "internalType": "struct RiskAnalyzer.PoolData",
          "name": "",
          "type": "tuple"
        }
      ],
      "stateMutability": "view",
      "type": "function"
    },
    {
      "inputs": [
        {
          "internalType": "address",
          "name": "_contractAddress",
          "type": "address"
        }
      ],
      "name": "getRiskData",
      "outputs": [
        {
          "components": [
            {
              "internalType": "address",
              "name": "contractAddress",
              "type": "address"
            },
            {
              "internalType": "uint256",
              "name": "riskScore",
              "type": "uint256"
            },
            {
              "internalType": "string",
              "name": "riskLevel",
              "type": "string"
            },
            {
              "internalType": "uint256",
              "name": "timestamp",
              "type": "uint256"
            },
            {
              "internalType": "bool",
              "name": "isBlacklisted",
              "type": "bool"
            }
          ],
          "internalType": "struct RiskAnalyzer.RiskData",
          "name": "",
          "type": "tuple"
        }
      ],
      "stateMutability": "view",
      "type": "function"
    },
    {
      "inputs": [
        {
          "internalType": "address",
          "name": "_address",
          "type": "address"
        }
      ],
      "name": "isBlacklisted",
      "outputs": [
        {
          "internalType": "bool",
          "name": "",
          "type": "bool"
        }
      ],
      "stateMutability": "view",
      "type": "function"
    },
    {
      "inputs": [],
      "name": "owner",
      "outputs": [
        {
          "internalType": "address",
          "name": "",
          "type": "address"
        }
      ],
      "stateMutability": "view",
      "type": "function"
    },
    {
      "inputs": [
        {
          "internalType": "address",
          "name": "",
          "type": "address"
        }
      ],
      "name": "poolData",
      "outputs": [
        {
          "internalType": "address",
          "name": "poolAddress",
          "type": "address"
        },
        {
          "internalType": "uint256",
          "name": "liquidityScore",
          "type": "uint256"
        },
        {
          "internalType": "uint256",
          "name": "volumeScore",
          "type": "uint256"
        },
        {
          "internalType": "bool",
          "name": "isVerified",
          "type": "bool"
        },
        {
          "internalType": "uint256",
          "name": "lastUpdated",
          "type": "uint256"
        }
      ],
      "stateMutability": "view",
      "type": "function"
    },
    {
      "inputs": [],
      "name": "renounceOwnership",
      "outputs": [],
      "stateMutability": "nonpayable",
      "type": "function"
    },
    {
      "inputs": [
        {
          "internalType": "address",
          "name": "newOwner",
          "type": "address"
        }
      ],
      "name": "transferOwnership",
      "outputs": [],
      "stateMutability": "nonpayable",
      "type": "function"
    },
    {
      "inputs": [
        {
          "internalType": "address",
          "name": "_poolAddress",
          "type": "address"
        },
        {
          "internalType": "uint256",
          "name": "_liquidityScore",
          "type": "uint256"
        },
        {
          "internalType": "uint256",
          "name": "_volumeScore",
          "type": "uint256"
        },
        {
          "internalType": "bool",
          "name": "_isVerified",
          "type": "bool"
        }
      ],
      "name": "updatePoolData",
      "outputs": [],
      "stateMutability": "nonpayable",
      "type": "function"
    },
    {
      "inputs": [
        {
          "internalType": "address",
          "name": "_contractAddress",
          "type": "address"
        },
        {
          "internalType": "uint256",
          "name": "_riskScore",
          "type": "uint256"
        }
      ],
      "name": "updateRiskData",
      "outputs": [],
      "stateMutability": "nonpayable",
      "type": "function"
    }
  ],
  "bytecode": "0x608060405234801561001057600080fd5b50338061003757604051631e4fbdf760e01b81526000600482015260240160405180910390fd5b6100408161004a565b506001805561009a565b600080546001600160a01b038381166001600160a01b0319831681178455604051919092169283917f8be0079c531659141344cd1fd0a4f28419497f9722a3daafe3b4186f6b6457e09190a35050565b6110ff806100a96000396000f3fe608060405234801561001057600080fd5b50600436106100cf5760003560e01c80638da5cb5b1161008c578063f2fde38b11610066578063f2fde38b14610258578063f84448f41461026b578063fd87a94d1461029e578063fe575a87146102c257600080fd5b80638da5cb5b1461020a5780639e4cdd9514610225578063d95906551461023857600080fd5b806309c6cfd7146100d4578063136efb7a146100fd57806313d21cdf1461017f578063162ffa98146101da57806349b323aa146101ef578063715018a614610202575b600080fd5b6100e76100e2366004610c99565b6102ee565b6040516100f49190610da7565b60405180910390f35b61014b61010b366004610e20565b6003602081905260009182526040909120805460018201546002830154938301546004909301546001600160a01b03909216939092909160ff9091169085565b604080516001600160a01b03909616865260208601949094529284019190915215156060830152608082015260a0016100f4565b61019261018d366004610e20565b6104a1565b6040516100f4919081516001600160a01b0316815260208083015190820152604080830151908201526060808301511515908201526080918201519181019190915260a00190565b6101ed6101e8366004610e42565b61053c565b005b6101ed6101fd366004610e20565b61065d565b6101ed610789565b6000546040516001600160a01b0390911681526020016100f4565b6101ed610233366004610e8f565b61079d565b61024b610246366004610e20565b610944565b6040516100f49190610eb9565b6101ed610266366004610e20565b610a39565b61028e610279366004610e20565b60046020526000908152604090205460ff1681565b60405190151581526020016100f4565b6102b16102ac366004610e20565b610a77565b6040516100f4959493929190610ecc565b61028e6102d0366004610e20565b6001600160a01b031660009081526004602052604090205460ff1690565b606060008267ffffffffffffffff81111561030b5761030b610f0c565b60405190808252806020026020018201604052801561034457816020015b610331610c5f565b8152602001906001900390816103295790505b50905060005b83811015610499576002600086868481811061036857610368610f22565b905060200201602081019061037d9190610e20565b6001600160a01b0390811682526020808301939093526040918201600020825160a081018452815490921682526001810154938201939093526002830180549193928401916103cb90610f38565b80601f01602080910402602001604051908101604052809291908181526020018280546103f790610f38565b80156104445780601f1061041957610100808354040283529160200191610444565b820191906000526020600020905b81548152906001019060200180831161042757829003601f168201915b50505091835250506003820154602082015260049091015460ff161515604090910152825183908390811061047b5761047b610f22565b6020026020010181905250808061049190610f72565b91505061034a565b509392505050565b6104de6040518060a0016040528060006001600160a01b031681526020016000815260200160008152602001600015158152602001600081525090565b506001600160a01b03908116600090815260036020818152604092839020835160a0810185528154909516855260018101549185019190915260028101549284019290925281015460ff161515606083015260040154608082015290565b610544610b3e565b6001600160a01b0384166105965760405162461bcd60e51b8152602060048201526014602482015273496e76616c696420706f6f6c206164647265737360601b60448201526064015b60405180910390fd5b6040805160a0810182526001600160a01b03868116808352602080840188815284860188815287151560608701908152426080880190815260008681526003808752908a9020985189546001600160a01b0319169816979097178855925160018801559051600287015551938501805460ff1916941515949094179093559151600490930192909255825186815290810185905290917f8080428029c3253bad53fb116e0a9687507e1780d356c8331c952f61e974cfa1910160405180910390a250505050565b610665610b3e565b6001600160a01b0381166106b65760405162461bcd60e51b8152602060048201526018602482015277496e76616c696420636f6e7472616374206164647265737360401b604482015260640161058d565b6001600160a01b038082166000908152600460209081526040808320805460ff1916600117905560029091529020541615610752576001600160a01b038116600081815260026020818152604080842060048101805460ff191660019081179091556064908201558151808301909252600882526710d492551250d05360c21b828401529490935281905291909101906107509082610fe8565b505b6040516001600160a01b038216907ffb00f7adc91459b5048ecdc60b783959a583bafb1e3041f3e1f017540a0e47d390600090a250565b610791610b3e565b61079b6000610b6b565b565b6107a5610b3e565b6001600160a01b0382166107f65760405162461bcd60e51b8152602060048201526018602482015277496e76616c696420636f6e7472616374206164647265737360401b604482015260640161058d565b60648111156108475760405162461bcd60e51b815260206004820152601960248201527f5269736b2073636f7265206d757374206265203c3d2031303000000000000000604482015260640161058d565b600061085282610bbb565b6040805160a0810182526001600160a01b0386811680835260208084018881528486018781524260608701526000848152600484528781205460ff161515608088015293845260029283905295909220845181546001600160a01b0319169416939093178355905160018301559251939450909290918201906108d59082610fe8565b50606082015160038201556080909101516004909101805460ff19169115159190911790556040516001600160a01b038416907f87c2136753e552331f894e7497243393bf9ae03480f9b27067c8fef77cf98c589061093790859085906110a8565b60405180910390a2505050565b61094c610c5f565b6001600160a01b03808316600090815260026020818152604092839020835160a081018552815490951685526001810154918501919091529081018054919284019161099790610f38565b80601f01602080910402602001604051908101604052809291908181526020018280546109c390610f38565b8015610a105780601f106109e557610100808354040283529160200191610a10565b820191906000526020600020905b8154815290600101906020018083116109f357829003601f168201915b50505091835250506003820154602082015260049091015460ff16151560409091015292915050565b610a41610b3e565b6001600160a01b038116610a6b57604051631e4fbdf760e01b81526000600482015260240161058d565b610a7481610b6b565b50565b60026020819052600091825260409091208054600182015492820180546001600160a01b03909216939291610aab90610f38565b80601f0160208091040260200160405190810160405280929190818152602001828054610ad790610f38565b8015610b245780601f10610af957610100808354040283529160200191610b24565b820191906000526020600020905b815481529060010190602001808311610b0757829003601f168201915b50505050600383015460049093015491929160ff16905085565b6000546001600160a01b0316331461079b5760405163118cdaa760e01b815233600482015260240161058d565b600080546001600160a01b038381166001600160a01b0319831681178455604051919092169283917f8be0079c531659141344cd1fd0a4f28419497f9722a3daafe3b4186f6b6457e09190a35050565b606060508210610be957505060408051808201909152600881526710d492551250d05360c21b602082015290565b603c8210610c11575050604080518082019091526004815263090928e960e31b602082015290565b601e8210610c3b5750506040805180820190915260068152654d454449554d60d01b602082015290565b50506040805180820190915260038152624c4f5760e81b602082015290565b919050565b6040518060a0016040528060006001600160a01b031681526020016000815260200160608152602001600081526020016000151581525090565b60008060208385031215610cac57600080fd5b823567ffffffffffffffff80821115610cc457600080fd5b818501915085601f830112610cd857600080fd5b813581811115610ce757600080fd5b8660208260051b8501011115610cfc57600080fd5b60209290920196919550909350505050565b6000815180845260005b81811015610d3457602081850181015186830182015201610d18565b506000602082860101526020601f19601f83011685010191505092915050565b60018060a01b038151168252602081015160208301526000604082015160a06040850152610d8560a0850182610d0e565b9050606083015160608501526080830151151560808501528091505092915050565b6000602080830181845280855180835260408601915060408160051b870101925083870160005b82811015610dfc57603f19888603018452610dea858351610d54565b94509285019290850190600101610dce565b5092979650505050505050565b80356001600160a01b0381168114610c5a57600080fd5b600060208284031215610e3257600080fd5b610e3b82610e09565b9392505050565b60008060008060808587031215610e5857600080fd5b610e6185610e09565b9350602085013592506040850135915060608501358015158114610e8457600080fd5b939692955090935050565b60008060408385031215610ea257600080fd5b610eab83610e09565b946020939093013593505050565b602081526000610e3b6020830184610d54565b60018060a01b038616815284602082015260a060408201526000610ef360a0830186610d0e565b6060830194909452509015156080909101529392505050565b634e487b7160e01b600052604160045260246000fd5b634e487b7160e01b600052603260045260246000fd5b600181811c90821680610f4c57607f821691505b602082108103610f6c57634e487b7160e01b600052602260045260246000fd5b50919050565b600060018201610f9257634e487b7160e01b600052601160045260246000fd5b5060010190565b601f821115610fe357600081815260208120601f850160051c81016020861015610fc05750805b601f850160051c820191505b81811015610fdf57828155600101610fcc565b5050505b505050565b815167ffffffffffffffff81111561100257611002610f0c565b611016816110108454610f38565b84610f99565b602080601f83116001811461104b57600084156110335750858301515b600019600386901b1c1916600185901b178555610fdf565b600085815260208120601f198616915b8281101561107a5788860151825594840194600190910190840161105b565b50858210156110985787850151600019600388901b60f8161c191681555b5050505050600190811b01905550565b8281526040602082015260006110c16040830184610d0e565b94935050505056fea26469706673582212209a9b48339d6c2dcba273fdea9bd0a809db18638367d457ca7b24bfa453e780b464736f6c63430008140033",
  "linkReferences": {},
  "deployedLinkReferences": {}
}