{
  "_format": "hh-sol-artifact-1",
  "contractName": "AIRiskController",
  "sourceName": "contracts/AIRiskController.sol",
  "abi": [
    {
      "inputs": [],
      "stateMutability": "nonpayable",
      "type": "constructor"
    },
    {
      "inputs": [
        {
          "internalType": "address",
          "name": "owner",
          "type": "address"
        }
      ],
      "name": "OwnableInvalidOwner",
      "type": "error"
    },
    {
      "inputs": [
        {
          "internalType": "address",
          "name": "account",
          "type": "address"
        }
      ],
      "name": "OwnableUnauthorizedAccount",
      "type": "error"
    },
    {
      "inputs": [],
      "name": "ReentrancyGuardReentrantCall",
      "type": "error"
    },
    {
      "anonymous": false,
      "inputs": [
        {
          "indexed": true,
          "internalType": "address",
          "name": "controller",
          "type": "address"
        }
      ],
      "name": "AIControllerAuthorized",
      "type": "event"
    },
    {
      "anonymous": false,
      "inputs": [
        {
          "indexed": true,
          "internalType": "address",
          "name": "contractAddress",
          "type": "address"
        }
      ],
      "name": "ContractBlacklisted",
      "type": "event"
    },
    {
      "anonymous": false,
      "inputs": [
        {
          "indexed": true,
          "internalType": "address",
          "name": "user",
          "type": "address"
        },
        {
          "indexed": false,
          "internalType": "uint256",
          "name": "protectedAmount",
          "type": "uint256"
        }
      ],
      "name": "EmergencyProtectionActivated",
      "type": "event"
    },
    {
      "anonymous": false,
      "inputs": [
        {
          "indexed": true,
          "internalType": "address",
          "name": "previousOwner",
          "type": "address"
        },
        {
          "indexed": true,
          "internalType": "address",
          "name": "newOwner",
          "type": "address"
        }
      ],
      "name": "OwnershipTransferred",
      "type": "event"
    },
    {
      "anonymous": false,
      "inputs": [
        {
          "indexed": true,
          "internalType": "address",
          "name": "poolAddress",
          "type": "address"
        },
        {
          "indexed": false,
          "internalType": "uint256",
          "name": "liquidityScore",
          "type": "uint256"
        },
        {
          "indexed": false,
          "internalType": "uint256",
          "name": "volumeScore",
          "type": "uint256"
        }
      ],
      "name": "PoolDataUpdated",
      "type": "event"
    },
    {
      "anonymous": false,
      "inputs": [
        {
          "indexed": true,
          "internalType": "uint256",
          "name": "actionId",
          "type": "uint256"
        },
        {
          "indexed": true,
          "internalType": "address",
          "name": "targetContract",
          "type": "address"
        },
        {
          "indexed": false,
          "internalType": "enum AIRiskController.ActionType",
          "name": "actionType",
          "type": "uint8"
        }
      ],
      "name": "RiskControlTriggered",
      "type": "event"
    },
    {
      "anonymous": false,
      "inputs": [
        {
          "indexed": true,
          "internalType": "address",
          "name": "contractAddress",
          "type": "address"
        },
        {
          "indexed": false,
          "internalType": "uint256",
          "name": "riskScore",
          "type": "uint256"
        },
        {
          "indexed": false,
          "internalType": "string",
          "name": "riskLevel",
          "type": "string"
        }
      ],
      "name": "RiskDataUpdated",
      "type": "event"
    },
    {
      "anonymous": false,
      "inputs": [
        {
          "indexed": true,
          "internalType": "uint256",
          "name": "mechanismId",
          "type": "uint256"
        },
        {
          "indexed": true,
          "internalType": "address",
          "name": "protectedUser",
          "type": "address"
        }
      ],
      "name": "StabilityMechanismActivated",
      "type": "event"
    },
    {
      "inputs": [],
      "name": "CRITICAL_RISK_THRESHOLD",
      "outputs": [
        {
          "internalType": "uint256",
          "name": "",
          "type": "uint256"
        }
      ],
      "stateMutability": "view",
      "type": "function"
    },
    {
      "inputs": [],
      "name": "HIGH_RISK_THRESHOLD",
      "outputs": [
        {
          "internalType": "uint256",
          "name": "",
          "type": "uint256"
        }
      ],
      "stateMutability": "view",
      "type": "function"
    },
    {
      "inputs": [],
      "name": "STABILITY_THRESHOLD",
      "outputs": [
        {
          "internalType": "uint256",
          "name": "",
          "type": "uint256"
        }
      ],
      "stateMutability": "view",
      "type": "function"
    },
    {
      "inputs": [
        {
          "internalType": "uint256",
          "name": "_mechanismId",
          "type": "uint256"
        },
        {
          "internalType": "address",
          "name": "_user",
          "type": "address"
        },
        {
          "internalType": "uint256",
          "name": "_protectionAmount",
          "type": "uint256"
        }
      ],
      "name": "activateUserProtection",
      "outputs": [],
      "stateMutability": "nonpayable",
      "type": "function"
    },
    {
      "inputs": [
        {
          "internalType": "address",
          "name": "",
          "type": "address"
        }
      ],
      "name": "aiControllers",
      "outputs": [
        {
          "internalType": "bool",
          "name": "",
          "type": "bool"
        }
      ],
      "stateMutability": "view",
      "type": "function"
    },
    {
      "inputs": [
        {
          "internalType": "address",
          "name": "_controller",
          "type": "address"
        }
      ],
      "name": "authorizeAIController",
      "outputs": [],
      "stateMutability": "nonpayable",
      "type": "function"
    },
    {
      "inputs": [
        {
          "internalType": "address",
          "name": "_contractAddress",
          "type": "address"
        }
      ],
      "name": "blacklistContract",
      "outputs": [],
      "stateMutability": "nonpayable",
      "type": "function"
    },
    {
      "inputs": [
        {
          "internalType": "address",
          "name": "",
          "type": "address"
        }
      ],
      "name": "blacklistedContracts",
      "outputs": [
        {
          "internalType": "bool",
          "name": "",
          "type": "bool"
        }
      ],
      "stateMutability": "view",
      "type": "function"
    },
    {
      "inputs": [
        {
          "internalType": "address",
          "name": "",
          "type": "address"
        },
        {
          "internalType": "uint256",
          "name": "",
          "type": "uint256"
        }
      ],
      "name": "contractActions",
      "outputs": [
        {
          "internalType": "uint256",
          "name": "",
          "type": "uint256"
        }
      ],
      "stateMutability": "view",
      "type": "function"
    },
    {
      "inputs": [
        {
          "internalType": "address",
          "name": "",
          "type": "address"
        }
      ],
      "name": "contractRisks",
      "outputs": [
        {
          "internalType": "address",
          "name": "contractAddress",
          "type": "address"
        },
        {
          "internalType": "uint256",
          "name": "riskScore",
          "type": "uint256"
        },
        {
          "internalType": "string",
          "name": "riskLevel",
          "type": "string"
        },
        {
          "internalType": "uint256",
          "name": "timestamp",
          "type": "uint256"
        },
        {
          "internalType": "bool",
          "name": "isBlacklisted",
          "type": "bool"
        }
      ],
      "stateMutability": "view",
      "type": "function"
    },
    {
      "inputs": [
        {
          "internalType": "address",
          "name": "_targetContract",
          "type": "address"
        },
        {
          "internalType": "uint256",
          "name": "_riskThreshold",
          "type": "uint256"
        },
        {
          "internalType": "enum AIRiskController.ActionType",
          "name": "_actionType",
          "type": "uint8"
        }
      ],
      "name": "createRiskControlAction",
      "outputs": [
        {
          "internalType": "uint256",
          "name": "",
          "type": "uint256"
        }
      ],
      "stateMutability": "nonpayable",
      "type": "function"
    },
    {
      "inputs": [
        {
          "internalType": "string",
          "name": "_name",
          "type": "string"
        },
        {
          "internalType": "uint256",
          "name": "_stabilityScore",
          "type": "uint256"
        }
      ],
      "name": "createStabilityMechanism",
      "outputs": [
        {
          "internalType": "uint256",
          "name": "",
          "type": "uint256"
        }
      ],
      "stateMutability": "nonpayable",
      "type": "function"
    },
    {
      "inputs": [
        {
          "internalType": "address[]",
          "name": "_addresses",
          "type": "address[]"
        }
      ],
      "name": "getBatchRiskData",
      "outputs": [
        {
          "components": [
            {
              "internalType": "address",
              "name": "contractAddress",
              "type": "address"
            },
            {
              "internalType": "uint256",
              "name": "riskScore",
              "type": "uint256"
            },
            {
              "internalType": "string",
              "name": "riskLevel",
              "type": "string"
            },
            {
              "internalType": "uint256",
              "name": "timestamp",
              "type": "uint256"
            },
            {
              "internalType": "bool",
              "name": "isBlacklisted",
              "type": "bool"
            }
          ],
          "internalType": "struct RiskAnalyzer.RiskData[]",
          "name": "",
          "type": "tuple[]"
        }
      ],
      "stateMutability": "view",
      "type": "function"
    },
    {
      "inputs": [
        {
          "internalType": "address",
          "name": "_contract",
          "type": "address"
        }
      ],
      "name": "getContractActions",
      "outputs": [
        {
          "internalType": "uint256[]",
          "name": "",
          "type": "uint256[]"
        }
      ],
      "stateMutability": "view",
      "type": "function"
    },
    {
      "inputs": [
        {
          "internalType": "address",
          "name": "_poolAddress",
          "type": "address"
        }
      ],
      "name": "getPoolData",
      "outputs": [
        {
          "components": [
            {
              "internalType": "address",
              "name": "poolAddress",
              "type": "address"
            },
            {
              "internalType": "uint256",
              "name": "liquidityScore",
              "type": "uint256"
            },
            {
              "internalType": "uint256",
              "name": "volumeScore",
              "type": "uint256"
            },
            {
              "internalType": "bool",
              "name": "isVerified",
              "type": "bool"
            },
            {
              "internalType": "uint256",
              "name": "lastUpdated",
              "type": "uint256"
            }
          ],
          "internalType": "struct RiskAnalyzer.PoolData",
          "name": "",
          "type": "tuple"
        }
      ],
      "stateMutability": "view",
      "type": "function"
    },
    {
      "inputs": [
        {
          "internalType": "address",
          "name": "_contractAddress",
          "type": "address"
        }
      ],
      "name": "getRiskData",
      "outputs": [
        {
          "components": [
            {
              "internalType": "address",
              "name": "contractAddress",
              "type": "address"
            },
            {
              "internalType": "uint256",
              "name": "riskScore",
              "type": "uint256"
            },
            {
              "internalType": "string",
              "name": "riskLevel",
              "type": "string"
            },
            {
              "internalType": "uint256",
              "name": "timestamp",
              "type": "uint256"
            },
            {
              "internalType": "bool",
              "name": "isBlacklisted",
              "type": "bool"
            }
          ],
          "internalType": "struct RiskAnalyzer.RiskData",
          "name": "",
          "type": "tuple"
        }
      ],
      "stateMutability": "view",
      "type": "function"
    },
    {
      "inputs": [
        {
          "internalType": "uint256",
          "name": "_mechanismId",
          "type": "uint256"
        },
        {
          "internalType": "address",
          "name": "_user",
          "type": "address"
        }
      ],
      "name": "getUserProtection",
      "outputs": [
        {
          "internalType": "uint256",
          "name": "",
          "type": "uint256"
        }
      ],
      "stateMutability": "view",
      "type": "function"
    },
    {
      "inputs": [
        {
          "internalType": "address",
          "name": "_address",
          "type": "address"
        }
      ],
      "name": "isBlacklisted",
      "outputs": [
        {
          "internalType": "bool",
          "name": "",
          "type": "bool"
        }
      ],
      "stateMutability": "view",
      "type": "function"
    },
    {
      "inputs": [],
      "name": "nextActionId",
      "outputs": [
        {
          "internalType": "uint256",
          "name": "",
          "type": "uint256"
        }
      ],
      "stateMutability": "view",
      "type": "function"
    },
    {
      "inputs": [],
      "name": "nextMechanismId",
      "outputs": [
        {
          "internalType": "uint256",
          "name": "",
          "type": "uint256"
        }
      ],
      "stateMutability": "view",
      "type": "function"
    },
    {
      "inputs": [],
      "name": "owner",
      "outputs": [
        {
          "internalType": "address",
          "name": "",
          "type": "address"
        }
      ],
      "stateMutability": "view",
      "type": "function"
    },
    {
      "inputs": [
        {
          "internalType": "address",
          "name": "",
          "type": "address"
        }
      ],
      "name": "poolData",
      "outputs": [
        {
          "internalType": "address",
          "name": "poolAddress",
          "type": "address"
        },
        {
          "internalType": "uint256",
          "name": "liquidityScore",
          "type": "uint256"
        },
        {
          "internalType": "uint256",
          "name": "volumeScore",
          "type": "uint256"
        },
        {
          "internalType": "bool",
          "name": "isVerified",
          "type": "bool"
        },
        {
          "internalType": "uint256",
          "name": "lastUpdated",
          "type": "uint256"
        }
      ],
      "stateMutability": "view",
      "type": "function"
    },
    {
      "inputs": [],
      "name": "renounceOwnership",
      "outputs": [],
      "stateMutability": "nonpayable",
      "type": "function"
    },
    {
      "inputs": [
        {
          "internalType": "uint256",
          "name": "",
          "type": "uint256"
        }
      ],
      "name": "riskActions",
      "outputs": [
        {
          "internalType": "uint256",
          "name": "actionId",
          "type": "uint256"
        },
        {
          "internalType": "address",
          "name": "targetContract",
          "type": "address"
        },
        {
          "internalType": "uint256",
          "name": "riskThreshold",
          "type": "uint256"
        },
        {
          "internalType": "enum AIRiskController.ActionType",
          "name": "actionType",
          "type": "uint8"
        },
        {
          "internalType": "bool",
          "name": "isActive",
          "type": "bool"
        },
        {
          "internalType": "uint256",
          "name": "triggerCount",
          "type": "uint256"
        },
        {
          "internalType": "uint256",
          "name": "lastTriggered",
          "type": "uint256"
        },
        {
          "internalType": "address",
          "name": "aiController",
          "type": "address"
        }
      ],
      "stateMutability": "view",
      "type": "function"
    },
    {
      "inputs": [
        {
          "internalType": "uint256",
          "name": "",
          "type": "uint256"
        }
      ],
      "name": "stabilityMechanisms",
      "outputs": [
        {
          "internalType": "uint256",
          "name": "mechanismId",
          "type": "uint256"
        },
        {
          "internalType": "string",
          "name": "name",
          "type": "string"
        },
        {
          "internalType": "uint256",
          "name": "stabilityScore",
          "type": "uint256"
        },
        {
          "internalType": "bool",
          "name": "isEnabled",
          "type": "bool"
        },
        {
          "internalType": "uint256",
          "name": "interventionCount",
          "type": "uint256"
        }
      ],
      "stateMutability": "view",
      "type": "function"
    },
    {
      "inputs": [
        {
          "internalType": "address",
          "name": "newOwner",
          "type": "address"
        }
      ],
      "name": "transferOwnership",
      "outputs": [],
      "stateMutability": "nonpayable",
      "type": "function"
    },
    {
      "inputs": [
        {
          "internalType": "uint256",
          "name": "_actionId",
          "type": "uint256"
        }
      ],
      "name": "triggerRiskControl",
      "outputs": [],
      "stateMutability": "nonpayable",
      "type": "function"
    },
    {
      "inputs": [
        {
          "internalType": "address",
          "name": "_poolAddress",
          "type": "address"
        },
        {
          "internalType": "uint256",
          "name": "_liquidityScore",
          "type": "uint256"
        },
        {
          "internalType": "uint256",
          "name": "_volumeScore",
          "type": "uint256"
        },
        {
          "internalType": "bool",
          "name": "_isVerified",
          "type": "bool"
        }
      ],
      "name": "updatePoolData",
      "outputs": [],
      "stateMutability": "nonpayable",
      "type": "function"
    },
    {
      "inputs": [
        {
          "internalType": "address",
          "name": "_contractAddress",
          "type": "address"
        },
        {
          "internalType": "uint256",
          "name": "_riskScore",
          "type": "uint256"
        }
      ],
      "name": "updateRiskData",
      "outputs": [],
      "stateMutability": "nonpayable",
      "type": "function"
    }
  ],
  "bytecode": "0x608060405260016009556001600a5534801561001a57600080fd5b50338061004157604051631e4fbdf760e01b81526000600482015260240160405180910390fd5b61004a81610054565b50600180556100a4565b600080546001600160a01b038381166001600160a01b0319831681178455604051919092169283917f8be0079c531659141344cd1fd0a4f28419497f9722a3daafe3b4186f6b6457e09190a35050565b612036806100b36000396000f3fe608060405234801561001057600080fd5b50600436106101cf5760003560e01c80639dcbd55c11610104578063d81f54b7116100a2578063fb86ff2f11610071578063fb86ff2f1461053a578063fd87a94d1461054d578063fdbab37714610571578063fe575a871461058457600080fd5b8063d81f54b7146104aa578063d9590655146104e4578063f2fde38b14610504578063f84448f41461051757600080fd5b8063b73903e4116100de578063b73903e41461040f578063beee4d3714610486578063cf9c571c14610499578063d12aea32146104a257600080fd5b80639dcbd55c146103e15780639e4cdd95146103e9578063a55d50e7146103fc57600080fd5b806346abe73a11610171578063715018a61161014b578063715018a6146103875780637267fd651461038f57806380c7a3e8146103b35780638da5cb5b146103c657600080fd5b806346abe73a1461035557806349b323aa1461036c57806351d4e6ac1461037f57600080fd5b806313d21cdf116101ad57806313d21cdf146102b2578063162ffa981461030d5780633e91aa5b1461032257806344bad1a61461033557600080fd5b806309c6cfd7146101d4578063109d203d146101fd578063136efb7a14610230575b600080fd5b6101e76101e23660046117b8565b6105b0565b6040516101f491906118d0565b60405180910390f35b61022061020b366004611947565b60086020526000908152604090205460ff1681565b60405190151581526020016101f4565b61027e61023e366004611947565b6003602081905260009182526040909120805460018201546002830154938301546004909301546001600160a01b03909216939092909160ff9091169085565b604080516001600160a01b03909616865260208601949094529284019190915215156060830152608082015260a0016101f4565b6102c56102c0366004611947565b610765565b6040516101f4919081516001600160a01b0316815260208083015190820152604080830151908201526060808301511515908201526080918201519181019190915260a00190565b61032061031b366004611979565b610800565b005b6103206103303660046119c3565b610922565b610348610343366004611947565b610a63565b6040516101f491906119fb565b61035e60095481565b6040519081526020016101f4565b61032061037a366004611947565b610acf565b61035e605081565b610320610bfb565b6103a261039d366004611a3f565b610c0f565b6040516101f4959493929190611a58565b61035e6103c1366004611b26565b610ccc565b6000546040516001600160a01b0390911681526020016101f4565b61035e603c81565b6103206103f7366004611ba8565b610d6e565b61032061040a366004611947565b610f15565b61047261041d366004611a3f565b6005602081905260009182526040909120805460018201546002830154600384015460048501549585015460069095015493956001600160a01b0393841695929460ff80841695610100909404169391921688565b6040516101f4989796959493929190611c0c565b61035e610494366004611ba8565b610f69565b61035e600a5481565b61035e604681565b61035e6104b8366004611c63565b60008281526006602090815260408083206001600160a01b038516845260050190915290205492915050565b6104f76104f2366004611947565b610f9a565b6040516101f49190611c93565b610320610512366004611947565b61108f565b610220610525366004611947565b60046020526000908152604090205460ff1681565b610320610548366004611a3f565b6110cd565b61056061055b366004611947565b611350565b6040516101f4959493929190611ca6565b61035e61057f366004611ce6565b611417565b610220610592366004611947565b6001600160a01b031660009081526004602052604090205460ff1690565b606060008267ffffffffffffffff8111156105cd576105cd611a8e565b60405190808252806020026020018201604052801561060657816020015b6105f361177e565b8152602001906001900390816105eb5790505b50905060005b8381101561075b576002600086868481811061062a5761062a611d2c565b905060200201602081019061063f9190611947565b6001600160a01b0390811682526020808301939093526040918201600020825160a0810184528154909216825260018101549382019390935260028301805491939284019161068d90611d42565b80601f01602080910402602001604051908101604052809291908181526020018280546106b990611d42565b80156107065780601f106106db57610100808354040283529160200191610706565b820191906000526020600020905b8154815290600101906020018083116106e957829003601f168201915b50505091835250506003820154602082015260049091015460ff161515604090910152825183908390811061073d5761073d611d2c565b6020026020010181905250808061075390611d7c565b91505061060c565b5090505b92915050565b6107a26040518060a0016040528060006001600160a01b031681526020016000815260200160008152602001600015158152602001600081525090565b506001600160a01b03908116600090815260036020818152604092839020835160a0810185528154909516855260018101549185019190915260028101549284019290925281015460ff161515606083015260040154608082015290565b6108086115be565b6001600160a01b03841661085a5760405162461bcd60e51b8152602060048201526014602482015273496e76616c696420706f6f6c206164647265737360601b60448201526064015b60405180910390fd5b6040805160a0810182526001600160a01b03868116808352602080840188815284860188815287151560608701908152426080880190815260008681526003808752908a9020985189546001600160a01b0319169816979097178855925160018801559051600287015551938501805460ff1916941515949094179093559151600490930192909255825186815290810185905290917f8080428029c3253bad53fb116e0a9687507e1780d356c8331c952f61e974cfa191015b60405180910390a250505050565b3360009081526008602052604090205460ff168061094a57506000546001600160a01b031633145b6109665760405162461bcd60e51b815260040161085190611da3565b6000838152600660205260409020600381015460ff166109c05760405162461bcd60e51b8152602060048201526015602482015274135958da185b9a5cdb481b9bdd08195b98589b1959605a1b6044820152606401610851565b6001600160a01b03831660009081526005820160205260408120839055600482018054916109ed83611d7c565b90915550506040516001600160a01b0384169085907f8f49adb12dda967c9d628cd1d5e3dce0f2767deec72a325827faf6446c9efb4790600090a3826001600160a01b03167f9eb20c9c7cc30434ee921b1c8f34f43d8f262de4b2663e4ef45588cf16fe028e8360405161091491815260200190565b6001600160a01b038116600090815260076020908152604091829020805483518184028101840190945280845260609392830182828015610ac357602002820191906000526020600020905b815481526020019060010190808311610aaf575b50505050509050919050565b610ad76115be565b6001600160a01b038116610b285760405162461bcd60e51b8152602060048201526018602482015277496e76616c696420636f6e7472616374206164647265737360401b6044820152606401610851565b6001600160a01b038082166000908152600460209081526040808320805460ff1916600117905560029091529020541615610bc4576001600160a01b038116600081815260026020818152604080842060048101805460ff191660019081179091556064908201558151808301909252600882526710d492551250d05360c21b82840152949093528190529190910190610bc29082611e29565b505b6040516001600160a01b038216907ffb00f7adc91459b5048ecdc60b783959a583bafb1e3041f3e1f017540a0e47d390600090a250565b610c036115be565b610c0d60006115eb565b565b60066020526000908152604090208054600182018054919291610c3190611d42565b80601f0160208091040260200160405190810160405280929190818152602001828054610c5d90611d42565b8015610caa5780601f10610c7f57610100808354040283529160200191610caa565b820191906000526020600020905b815481529060010190602001808311610c8d57829003601f168201915b50505050600283015460038401546004909401549293909260ff909116915085565b3360009081526008602052604081205460ff1680610cf457506000546001600160a01b031633145b610d105760405162461bcd60e51b815260040161085190611da3565b600a805460009182610d2183611d7c565b90915550600081815260066020526040902081815590915060018101610d478682611e29565b506002810184905560038101805460ff191660011790556000600490910155905092915050565b610d766115be565b6001600160a01b038216610dc75760405162461bcd60e51b8152602060048201526018602482015277496e76616c696420636f6e7472616374206164647265737360401b6044820152606401610851565b6064811115610e185760405162461bcd60e51b815260206004820152601960248201527f5269736b2073636f7265206d757374206265203c3d20313030000000000000006044820152606401610851565b6000610e238261163b565b6040805160a0810182526001600160a01b0386811680835260208084018881528486018781524260608701526000848152600484528781205460ff161515608088015293845260029283905295909220845181546001600160a01b031916941693909317835590516001830155925193945090929091820190610ea69082611e29565b50606082015160038201556080909101516004909101805460ff19169115159190911790556040516001600160a01b038416907f87c2136753e552331f894e7497243393bf9ae03480f9b27067c8fef77cf98c5890610f089085908590611ee9565b60405180910390a2505050565b610f1d6115be565b6001600160a01b038116600081815260086020526040808220805460ff19166001179055517f50e3032887b740a934cc0771391ca314792263ef62fdd7dca913c5fdb334e0e99190a250565b60076020528160005260406000208181548110610f8557600080fd5b90600052602060002001600091509150505481565b610fa261177e565b6001600160a01b03808316600090815260026020818152604092839020835160a0810185528154909516855260018101549185019190915290810180549192840191610fed90611d42565b80601f016020809104026020016040519081016040528092919081815260200182805461101990611d42565b80156110665780601f1061103b57610100808354040283529160200191611066565b820191906000526020600020905b81548152906001019060200180831161104957829003601f168201915b50505091835250506003820154602082015260049091015460ff16151560409091015292915050565b6110976115be565b6001600160a01b0381166110c157604051631e4fbdf760e01b815260006004820152602401610851565b6110ca816115eb565b50565b3360009081526008602052604090205460ff16806110f557506000546001600160a01b031633145b6111115760405162461bcd60e51b815260040161085190611da3565b60008181526005602052604090206003810154610100900460ff1661116c5760405162461bcd60e51b8152602060048201526011602482015270416374696f6e206e6f742061637469766560781b6044820152606401610851565b600181015460405163d959065560e01b81526001600160a01b039091166004820152600090309063d959065590602401600060405180830381865afa1580156111b9573d6000803e3d6000fd5b505050506040513d6000823e601f3d908101601f191682016040526111e19190810190611f15565b90508160020154816020015110156112345760405162461bcd60e51b8152602060048201526016602482015275149a5cdac81d1a1c995cda1bdb19081b9bdd081b595d60521b6044820152606401610851565b60408051610100810182528354815260018401546001600160a01b0316602082015260028401549181019190915260038301546112dc91908490606083019060ff16600481111561128757611287611bd4565b600481111561129857611298611bd4565b81526003820154610100900460ff161515602082015260048201546040820152600582015460608201526006909101546001600160a01b03166080909101526116df565b6004820180549060006112ee83611d7c565b9091555050426005830155600182015460038301546040516001600160a01b039092169185917f253cfdccaec7197e2d38ca19e0508ff336af4abdc4c1567f64447b668040b6c8916113439160ff1690611ff2565b60405180910390a3505050565b60026020819052600091825260409091208054600182015492820180546001600160a01b0390921693929161138490611d42565b80601f01602080910402602001604051908101604052809291908181526020018280546113b090611d42565b80156113fd5780601f106113d2576101008083540402835291602001916113fd565b820191906000526020600020905b8154815290600101906020018083116113e057829003601f168201915b50505050600383015460049093015491929160ff16905085565b3360009081526008602052604081205460ff168061143f57506000546001600160a01b031633145b61145b5760405162461bcd60e51b815260040161085190611da3565b600980546000918261146c83611d7c565b919050559050604051806101000160405280828152602001866001600160a01b031681526020018581526020018460048111156114ab576114ab611bd4565b815260016020808301829052600060408085018290526060808601839052336080909601959095528682526005835290819020855181559185015182840180546001600160a01b0319166001600160a01b039092169190911790558401516002820155918301516003830180549192909160ff19169083600481111561153357611533611bd4565b021790555060808201516003820180549115156101000261ff001990921691909117905560a0820151600482015560c0820151600582015560e090910151600690910180546001600160a01b039283166001600160a01b0319909116179055851660009081526007602090815260408220805460018101825590835291200181905590509392505050565b6000546001600160a01b03163314610c0d5760405163118cdaa760e01b8152336004820152602401610851565b600080546001600160a01b038381166001600160a01b0319831681178455604051919092169283917f8be0079c531659141344cd1fd0a4f28419497f9722a3daafe3b4186f6b6457e09190a35050565b60606050821061166957505060408051808201909152600881526710d492551250d05360c21b602082015290565b603c8210611691575050604080518082019091526004815263090928e960e31b602082015290565b601e82106116bb5750506040805180820190915260068152654d454449554d60d01b602082015290565b50506040805180820190915260038152624c4f5760e81b602082015290565b919050565b6003816060015160048111156116f7576116f7611bd4565b0361175e5760208101516040516324d991d560e11b81526001600160a01b03909116600482015230906349b323aa90602401600060405180830381600087803b15801561174357600080fd5b505af1158015611757573d6000803e3d6000fd5b5050505050565b60008160600151600481111561177657611776611bd4565b036110ca5750565b6040518060a0016040528060006001600160a01b031681526020016000815260200160608152602001600081526020016000151581525090565b600080602083850312156117cb57600080fd5b823567ffffffffffffffff808211156117e357600080fd5b818501915085601f8301126117f757600080fd5b81358181111561180657600080fd5b8660208260051b850101111561181b57600080fd5b60209290920196919550909350505050565b60005b83811015611848578181015183820152602001611830565b50506000910152565b6000815180845261186981602086016020860161182d565b601f01601f19169290920160200192915050565b60018060a01b038151168252602081015160208301526000604082015160a060408501526118ae60a0850182611851565b9050606083015160608501526080830151151560808501528091505092915050565b6000602080830181845280855180835260408601915060408160051b870101925083870160005b8281101561192557603f1988860301845261191385835161187d565b945092850192908501906001016118f7565b5092979650505050505050565b6001600160a01b03811681146110ca57600080fd5b60006020828403121561195957600080fd5b813561196481611932565b9392505050565b80151581146110ca57600080fd5b6000806000806080858703121561198f57600080fd5b843561199a81611932565b9350602085013592506040850135915060608501356119b88161196b565b939692955090935050565b6000806000606084860312156119d857600080fd5b8335925060208401356119ea81611932565b929592945050506040919091013590565b6020808252825182820181905260009190848201906040850190845b81811015611a3357835183529284019291840191600101611a17565b50909695505050505050565b600060208284031215611a5157600080fd5b5035919050565b85815260a060208201526000611a7160a0830187611851565b604083019590955250911515606083015260809091015292915050565b634e487b7160e01b600052604160045260246000fd5b60405160a0810167ffffffffffffffff81118282101715611ac757611ac7611a8e565b60405290565b604051601f8201601f1916810167ffffffffffffffff81118282101715611af657611af6611a8e565b604052919050565b600067ffffffffffffffff821115611b1857611b18611a8e565b50601f01601f191660200190565b60008060408385031215611b3957600080fd5b823567ffffffffffffffff811115611b5057600080fd5b8301601f81018513611b6157600080fd5b8035611b74611b6f82611afe565b611acd565b818152866020838501011115611b8957600080fd5b8160208401602083013760006020928201830152969401359450505050565b60008060408385031215611bbb57600080fd5b8235611bc681611932565b946020939093013593505050565b634e487b7160e01b600052602160045260246000fd5b60058110611c0857634e487b7160e01b600052602160045260246000fd5b9052565b8881526001600160a01b03888116602083015260408201889052610100820190611c396060840189611bea565b86151560808401528560a08401528460c084015280841660e0840152509998505050505050505050565b60008060408385031215611c7657600080fd5b823591506020830135611c8881611932565b809150509250929050565b602081526000611964602083018461187d565b60018060a01b038616815284602082015260a060408201526000611ccd60a0830186611851565b6060830194909452509015156080909101529392505050565b600080600060608486031215611cfb57600080fd5b8335611d0681611932565b925060208401359150604084013560058110611d2157600080fd5b809150509250925092565b634e487b7160e01b600052603260045260246000fd5b600181811c90821680611d5657607f821691505b602082108103611d7657634e487b7160e01b600052602260045260246000fd5b50919050565b600060018201611d9c57634e487b7160e01b600052601160045260246000fd5b5060010190565b6020808252601c908201527f4e6f7420617574686f72697a656420414920636f6e74726f6c6c657200000000604082015260600190565b601f821115611e2457600081815260208120601f850160051c81016020861015611e015750805b601f850160051c820191505b81811015611e2057828155600101611e0d565b5050505b505050565b815167ffffffffffffffff811115611e4357611e43611a8e565b611e5781611e518454611d42565b84611dda565b602080601f831160018114611e8c5760008415611e745750858301515b600019600386901b1c1916600185901b178555611e20565b600085815260208120601f198616915b82811015611ebb57888601518255948401946001909101908401611e9c565b5085821015611ed95787850151600019600388901b60f8161c191681555b5050505050600190811b01905550565b828152604060208201526000611f026040830184611851565b949350505050565b80516116da8161196b565b60006020808385031215611f2857600080fd5b825167ffffffffffffffff80821115611f4057600080fd5b9084019060a08287031215611f5457600080fd5b611f5c611aa4565b8251611f6781611932565b81528284015184820152604083015182811115611f8357600080fd5b83019150601f82018713611f9657600080fd5b8151611fa4611b6f82611afe565b8181528886838601011115611fb857600080fd5b611fc78287830188870161182d565b60408301525060608381015190820152611fe360808401611f0a565b60808201529695505050505050565b6020810161075f8284611bea56fea2646970667358221220128902d65b30f23323848e446bef4f1f31c87271cf80efc7795f533bb127da3c64736f6c63430008140033",
  "linkReferences": {},
  "deployedLinkReferences": {}
}